:020000040800F2
:10000000380700203D0200085F050008570500087A
:100010005B05000849040008170D000800000000F7
:100020000000000000000000000000004909000876
:100030004D040008000000003106000873090008A4
:10004000570200085702000857020008570200082C
:10005000570200085702000857020008570200081C
:10006000570200085702000857020008570200080C
:1000700057020008570200085702000857020008FC
:1000800057020008570200085702000857020008EC
:1000900057020008570200085702000857020008DC
:1000A00057020008570200085702000857020008CC
:1000B00057020008570200085702000857020008BC
:1000C00057020008570200085702000857020008AC
:1000D00057020008E90A0008570200085702000802
:1000E000570200085702000857020008570200088C
:1000F000570200085702000857020008570200087C
:10010000570200085702000857020008570200086B
:10011000570200085702000857020008570200085B
:10012000570200085702000857020008570200084B
:10013000570200085702000857020008570200083B
:10014000570200085702000857020008570200082B
:10015000570200085702000857020008570200081B
:10016000570200085702000857020008570200080B
:10017000570200085702000857020008000000005C
:10018000000000005702000857020008570200084C
:100190005702000800F002F800F041F80AA090E8C9
:1001A000000C82448344AAF10107DA4501D100F032
:1001B00036F8AFF2090EBAE80F0013F0010F18BFBE
:1001C000FB1A43F001031847480F0000680F0000B6
:1001D000103A24BF78C878C1FAD8520724BF30C873
:1001E00030C144BF04680C60704700000023002445
:1001F00000250026103A28BF78C1FBD8520728BF37
:1002000030C148BF0B607047732900F0B8800020F0
:1002100070471FB500F076FF1FBD10B510BD00F090
:10022000E1F81146FFF7F5FF00F020FE00F0FFF8BF
:1002300003B4FFF7F2FF03BC00F06FFD09488047ED
:1002400009480047FEE7FEE7FEE7FEE7FEE7FEE7B8
:10025000FEE7FEE7FEE7FEE704480549054A064BD0
:10026000704700007D0A0008950100083801002051
:1002700038070020380300203803002070470000B2
:100280000FB4044910B503AA029800F07DF810BC21
:100290005DF814FB040000202DE9F0410E460446F1
:1002A000002020622046E168884730B3252805D029
:1002B000D4E901219047206A401CF2E7E16820461A
:1002C00000278847050018D0A5F14100192802D859
:1002D00020354FF400673246294620462760FFF755
:1002E00093FF40B1012804D0F61D26F0070608361A
:1002F000D8E7361DD6E72846DAE7206ABDE8F08160
:1003000070B50C460546012A05D02878800600D530
:10031000EA69002302E0012305E05B1C934202D25C
:10032000E05C0028F9D1A869E618C01AA861286A1B
:10033000184428622846AFF3008004E0D5E9012183
:1003400014F8010B9047B442F8D32846AFF300806D
:1003500070BD704770477047704710B5436913B15F
:10036000AFF3008001E0FFF7CBFF012010BD127852
:1003700000F124010A7000224A700122EDE71168A1
:100380004FF0FF32E9E70000074B70B50D467B44A4
:1003900000F011F80446284600F020F810B14FF0A4
:1003A000FF3070BD204670BD330A000001694A1C51
:1003B00002610878704700B58FB0CDE901310021A6
:1003C000059105497944CDE9031011466846FFF7C8
:1003D00063FF0FB000BD0000E5FFFFFF007B00F0F2
:1003E00080007047754600F02BF8AE460500694660
:1003F000534620F00700854618B020B5FFF72CFFC4
:10040000BDE820404FF000064FF000074FF0000815
:100410004FF0000B21F00701AC46ACE8C009ACE896
:10042000C009ACE8C009ACE8C0098D46704710B5FA
:100430000446AFF300802046BDE81040FFF7F8BE49
:1004400000487047D400002000BFFEE7704700005E
:100450000149087070470000003C024003480068F2
:1004600040F480700149086070470000003C024081
:10047000F0B50A4600210023002400BF3DE001251D
:1004800005FA01F3158805EA03049C4234D1056896
:100490004F000326BE40B543056095784E00B54039
:1004A0000668354305609578012D02D09578022DB8
:1004B00016D185684F000326BE40B5438560D578C8
:1004C0004E00B540866835438560456801268E40FC
:1004D000B5434560456816798E40B6B235434560F0
:1004E000C5684F000326BE40B543C56055794E0030
:1004F000B540C6683543C560491C1029BFD3F0BD5F
:10050000F0B500230024CD107DB94D07ED0E02FAA1
:1005100005F3056A4E07F70E0F26BE40B543056288
:10052000056A45EA030404620EE04D07ED0E02FA87
:1005300005F3456A4E07F70E0F26BE40B5434562E8
:10054000456A45EA03044462F0BD0183704742698D
:100550004A404261704700BFFEE700BFFEE77047B8
:1005600002490143024A1160704700000000FA0589
:100570000CED00E02DE9F04305460F469046234878
:10058000006800F4E069B9F5A06F13D006DCB9F596
:10059000407F15D0B9F5806F15D10EE0B9F5C06F69
:1005A00005D0B9F5E06F0ED10023042412E0012339
:1005B00003240FE0022302240CE00323012409E0BA
:1005C0000423002406E04FF4E060FFF7C9FF002396
:1005D000042400BF00BFC3F10403C4F1040407FAFC
:1005E00003F60F20204100EA0800064336010848C0
:1005F000465505F01F01012088406911890001F16D
:10060000E021C1F80001BDE8F08300000CED00E03E
:1006100000E400E00549096821F48041034A1160C3
:100620001146096860F38E31116070470070004018
:10063000704700000349096860F30711014A11601F
:1006400070470000083802400349096860F38C21B4
:10065000014A1160704700000838024003490968E8
:1006600060F34F31014A11607047000008380240C2
:100670001349096821F48031114A11601146096853
:1006800021F480211160012807D11146096821F465
:10069000803101F58031116010E002280ED1084947
:1006A000096821F4802101F58021054A1160114675
:1006B000096821F4803101F5803111607047000034
:1006C0000038024070B5049C0D4D2D6860F39655BE
:1006D0000B4E356035462D6861F3050535603546AE
:1006E0002D6862F38E15356035462D6863F311452C
:1006F000356035462D6864F31B65356070BD0000BC
:10070000043802400349096860F30101014A11609D
:100710007047000008380240024909680143014A55
:100720001160704730380240024909680143014AAC
:100730001160704740380240024909680143014A8C
:1007400011607047443802400448006820F080700F
:1007500000F18070014908607047000000380240D5
:100760007FB509A30FCB8DE80F0000F03DF80646DA
:1007700009480068C0F303101DF8004026FA04F58C
:10078000284604B070BD000000000000000000001A
:10079000010203040607080908380240FCB50446B4
:1007A0000D460EA103C9CDE90001FFF7D9FF0746A9
:1007B00044B10C480068C0F382201DF8006027FA9D
:1007C00006F0206045B107480068C0F342301DF8CC
:1007D000006027FA06F02860FCBD00000000000061
:1007E000010203040838024030B51E4C2468C4F3EB
:1007F000810020B1012804D002282ED103E01A483C
:100800002DE01A482BE0174C241F246804F03F0108
:10081000144C241F2468C4F3805353B1134CB4FB0D
:10082000F1F4104D2D1F2D68C5F3881504FB05F25A
:1008300009E00D4CB4FBF1F40A4D2D1F2D68C5F3F2
:10084000881504FB05F2074C241F2468C4F30144F7
:10085000641C6400B2FBF4F001E0034800BF00BF79
:1008600030BD0000083802400024F40000127A0075
:1008700002480068C0F38100704700000838024059
:100880000146012000FA01F30A0A22B1012A05D02B
:10089000022A0BD106E00A48026808E008487030D6
:1008A000026804E006487430026800E000BF00BF40
:1008B00002EA030008B1012070470020FCE70000B5
:1008C000003802401148006820F00100401C0F4928
:1008D000086000200D49083108600C4800680C4988
:1008E00008400A4908600B48091D08600A48074982
:1008F000843108600548006820F4802003490860BE
:10090000002002490C3108607047000000380240A6
:10091000FFFFF6EA103000240030002008B5002068
:10092000009009E007480068C0F3404008B101208A
:1009300008BD0098401C00900098B0F5A04FF1D37E
:100940000020F5E7003802407047012808D14FF039
:10095000E021096941F004014FF0E022116107E054
:100960004FF0E021096921F004014FF0E02211610C
:100970007047704708B53D48006820F4803000F5A6
:1009800080303A4908600020009008E0374800684D
:10099000C0F3404000B106E00098401C0090009871
:1009A000B0F5A04FF2D300BF30480068C0F340401C
:1009B00000285AD02D484030006820F0805000F1C7
:1009C00080502A49403108602948006820F480405E
:1009D00000F580402649086024480830006820F06F
:1009E000F0002249083108600846006820F46040A1
:1009F00000F5004008600846006820F4E05000F56B
:100A0000A05008601B48091F08600846006820F4D1
:100A1000800000F580000860081F006820F08070EA
:100A200000F18070091F086000BF10480068C0F323
:100A300040600028F9D040F205700F4908600B486B
:100A40000830006820F003000849083108600846B3
:100A5000006820F00300801C086000BF03480830D5
:100A60000068C0F381000228F8D108BD00380240B8
:100A70000070004008540007003C024010B51648C2
:100A8000006840F47000144908601448006820F0C1
:100A90000100401C1149086000201049083108601D
:100AA0000E4800680E4908400C4908600D48091DB1
:100AB0000860081F006820F48020091F08600020DB
:100AC00006490C310860FFF755FF4FF000600249FE
:100AD0008039086010BD000088ED00E00038024059
:100AE000FFFFF6FE1030002410B52349234800F024
:100AF000EEF801283FD1214800F008F9204908709C
:100B00002048008800F4004088BB1E48008800F49C
:100B1000804070B1084600780A2803D000201949A7
:100B2000088024E01748008840F4004015490880F8
:100B30001DE0134800780D2806D11248008840F4C3
:100B400080401049088012E00D4800780D4909885E
:100B5000C1F30D010C4A50540A480088401C094951
:100B6000088008460088C72801DD00200880024967
:100B7000024800F00BF810BD2000010500100140F4
:100B80000A000020080000200C0000200A0E0123AB
:100B900003FA02F2036893430360704702688A43D2
:100BA000026070472DE9F84304460D46E879E16894
:100BB00060F38201E160E8794110E06861F3C3000D
:100BC000E060A8794110E06861F34920E060A8790D
:100BD000E16860F38A21E1602979E06861F30C3013
:100BE000E0606979206961F30D302061287A6169DC
:100BF00060F308216161287A4110606961F349203E
:100C000060612348844202D02248844204D169466C
:100C10000020FFF7C3FD03E000216846FFF7BEFD9B
:100C2000E068C0F3C03048B1009800EBC00101EBB0
:100C3000001029684900B0FBF1F808E0009800EBCB
:100C4000C00101EB001029688900B0FBF1F86420B5
:100C5000B8FBF0F006013009642101FB1087E06861
:100C6000C0F3C03040B1322000EBC700B0FBF1F060
:100C700000F00700064308E0322000EB0710642173
:100C8000B0FBF1F000F00F000643A660BDE8F8836A
:100C90000010014000140140C16821F4005101F529
:100CA0000051C16070478AB201F4803313B1C36848
:100CB0001343C36001F4003313B1036913430361A9
:100CC00001F4802313B1436913434361704710B5A6
:100CD000024601F4803018B1D068084083B209E0C0
:100CE00001F4003018B11069084083B202E0506985
:100CF000084083B20C0E012000FA04F4106804408E
:100D000014B10BB1012010BD0020FCE7014648687A
:100D1000C0F30800704700BFFEE700BF7047000047
:100D200010B5044600204FF0E02108610120FFF7D4
:100D30000CFE0148046010BD0000002070B50446A0
:100D40001E2094FBF0F594FBF0F100FB114604E04B
:100D500047F2305000F00CF86D1E002DF8D12EB186
:100D60004FF47A7106FB01F000F002F870BD00004C
:100D700000B97047124A12684243521E4FF0E023F6
:100D80005A6100229A611A46126942F001021A6100
:100D900000BF4FF0E022116901F001021AB101F425
:100DA0008032002AF5D04FF0E022126922F00102D1
:100DB0004FF0E0231A6100229A6100BFD9E70000DA
:100DC0000000002000BF064A1268C2F38012002A09
:100DD000F9D0034A526860F30802014B5A60704729
:100DE000001001401CB500BF2020FFF795FC00BF9C
:100DF00000BF2020FFF790FC00BF4FF40070ADF85B
:100E0000000001208DF8020003208DF8030000206F
:100E10008DF8040002208DF8050069461248FFF79E
:100E200027FB4FF48060ADF8000001208DF8020030
:100E300003208DF8030000208DF8040002208DF8B7
:100E4000050069460848FFF713FB00BF4FF4007127
:100E50000548FFF77AFB00BF00BF4FF480610248EE
:100E6000FFF773FB00BF1CBD001402404FF480600D
:100E7000FFF776FB0723022208214FF4A87000F049
:100E800093F8A820FFF74CFF4FF4E13000F0CEF8C4
:100E9000FFF7A8FF3EE02048008800F4004088B13A
:100EA0001D4805781DA0FFF7EBF9002021494855A2
:100EB00021A0FFF7E5F921A0FFF7E2F9002016498C
:100EC000088027E0601C84B241F2883094FBF0F186
:100ED00000FB114028B91BA0FFF7D2F924A0FFF7AF
:100EE000CFF9C82094FBF0F100FB114010B926A007
:100EF000FFF7C6F91E2094FBF0F100FB114030B95A
:100F000000BF4FF400712748FFF721FB00BF0A2004
:100F1000FFF714FFBFE70000080000200D0AC4FA25
:100F2000B7A2CBCDB5C4CFFBCFA2CEAAA3BA0D0A30
:100F3000000000000C000020257300000D0A0D0ABF
:100F4000000000000D0AD5FDB5E3D4ADD7D3204194
:100F5000504D333246343037D7EED0A1CFB5CDB374
:100F6000B0E520B4AEBFDACAB5D1E90D0A00000081
:100F7000D5FDB5E3D4ADD7D340414C49454E54459A
:100F80004B0D0A0D0A0D0A00C7EBCAE4C8EBCAFDF7
:100F9000BEDDA3ACD2D4BBD8B3B5BCFCBDE1CAF8AE
:100FA0000D0A000000140240F8B504460F4615462D
:100FB0001E464FF08050FFF7B7FB0320FFF72AFBD8
:100FC000FFF780FC0120FFF753FBFFF7A7FC012888
:100FD00001D00120F8BDFFF741FA0520FFF738FAEC
:100FE0000720FFF727FB0420FFF738FB0520FFF75A
:100FF0002BFB0120C0EB5500C3B22246394601202D
:101000000096FFF75FFBFFF79FFB00BF1920FFF77C
:1010100037FC0028FAD00220FFF774FB00BFFFF76F
:1010200027FC0228FBD10020D4E7000010B586B0D1
:10103000044600BF1020FFF77FFB00BF00BF012068
:10104000FFF76AFB00BF00BF0120FFF765FB00BF91
:10105000072209212848FFF753FA4FF40070ADF832
:10106000100002208DF8120003208DF813000020DC
:101070008DF814008DF8150004A91F48FFF7F8F942
:1010800007220A211C48FFF73BFA4FF48060ADF8B5
:10109000100002208DF8120003208DF813000020AC
:1010A0008DF814008DF8150004A91348FFF7E0F936
:1010B000019400208DF808008DF809008DF80A00D1
:1010C00003208DF80B0000208DF80C0001A90B48BF
:1010D000FFF768FD0948FFF7DFFD09490748FFF7FB
:1010E000E2FD20210548FFF759FD002203212520BC
:1010F000FFF740FA06B010BD0000024000100140AA
:10110000200001054FF04070E1EE100A704700002A
:1011100030110008000000200C000000D001000881
:101120003C1100080C0000202C070000EC01000816
:0C113000000000000000000000000000B3
:040000050800019559
:00000001FF
